{
  "_format": "hh-sol-artifact-1",
  "contractName": "Comptroller",
  "sourceName": "moonwell-contracts-private/contracts/core/Comptroller.sol",
  "abi": [
    {
      "inputs": [],
      "payable": false,
      "stateMutability": "nonpayable",
      "type": "constructor"
    },
    {
      "anonymous": false,
      "inputs": [
        {
          "indexed": false,
          "internalType": "string",
          "name": "action",
          "type": "string"
        },
        {
          "indexed": false,
          "internalType": "bool",
          "name": "pauseState",
          "type": "bool"
        }
      ],
      "name": "ActionPaused",
      "type": "event"
    },
    {
      "anonymous": false,
      "inputs": [
        {
          "indexed": false,
          "internalType": "contract MToken",
          "name": "mToken",
          "type": "address"
        },
        {
          "indexed": false,
          "internalType": "string",
          "name": "action",
          "type": "string"
        },
        {
          "indexed": false,
          "internalType": "bool",
          "name": "pauseState",
          "type": "bool"
        }
      ],
      "name": "ActionPaused",
      "type": "event"
    },
    {
      "anonymous": false,
      "inputs": [
        {
          "indexed": false,
          "internalType": "uint8",
          "name": "rewardToken",
          "type": "uint8"
        },
        {
          "indexed": true,
          "internalType": "contract MToken",
          "name": "mToken",
          "type": "address"
        },
        {
          "indexed": false,
          "internalType": "uint256",
          "name": "newBorrowRewardSpeed",
          "type": "uint256"
        }
      ],
      "name": "BorrowRewardSpeedUpdated",
      "type": "event"
    },
    {
      "anonymous": false,
      "inputs": [
        {
          "indexed": true,
          "internalType": "address",
          "name": "contributor",
          "type": "address"
        },
        {
          "indexed": false,
          "internalType": "uint256",
          "name": "newSpeed",
          "type": "uint256"
        }
      ],
      "name": "ContributorWellSpeedUpdated",
      "type": "event"
    },
    {
      "anonymous": false,
      "inputs": [
        {
          "indexed": true,
          "internalType": "uint8",
          "name": "tokenType",
          "type": "uint8"
        },
        {
          "indexed": true,
          "internalType": "contract MToken",
          "name": "mToken",
          "type": "address"
        },
        {
          "indexed": true,
          "internalType": "address",
          "name": "borrower",
          "type": "address"
        },
        {
          "indexed": false,
          "internalType": "uint256",
          "name": "wellDelta",
          "type": "uint256"
        },
        {
          "indexed": false,
          "internalType": "uint256",
          "name": "wellBorrowIndex",
          "type": "uint256"
        }
      ],
      "name": "DistributedBorrowerReward",
      "type": "event"
    },
    {
      "anonymous": false,
      "inputs": [
        {
          "indexed": true,
          "internalType": "uint8",
          "name": "tokenType",
          "type": "uint8"
        },
        {
          "indexed": true,
          "internalType": "contract MToken",
          "name": "mToken",
          "type": "address"
        },
        {
          "indexed": true,
          "internalType": "address",
          "name": "supplier",
          "type": "address"
        },
        {
          "indexed": false,
          "internalType": "uint256",
          "name": "wellDelta",
          "type": "uint256"
        },
        {
          "indexed": false,
          "internalType": "uint256",
          "name": "wellSupplyIndex",
          "type": "uint256"
        }
      ],
      "name": "DistributedSupplierReward",
      "type": "event"
    },
    {
      "anonymous": false,
      "inputs": [
        {
          "indexed": false,
          "internalType": "uint256",
          "name": "error",
          "type": "uint256"
        },
        {
          "indexed": false,
          "internalType": "uint256",
          "name": "info",
          "type": "uint256"
        },
        {
          "indexed": false,
          "internalType": "uint256",
          "name": "detail",
          "type": "uint256"
        }
      ],
      "name": "Failure",
      "type": "event"
    },
    {
      "anonymous": false,
      "inputs": [
        {
          "indexed": false,
          "internalType": "contract MToken",
          "name": "mToken",
          "type": "address"
        },
        {
          "indexed": false,
          "internalType": "address",
          "name": "account",
          "type": "address"
        }
      ],
      "name": "MarketEntered",
      "type": "event"
    },
    {
      "anonymous": false,
      "inputs": [
        {
          "indexed": false,
          "internalType": "contract MToken",
          "name": "mToken",
          "type": "address"
        },
        {
          "indexed": false,
          "internalType": "address",
          "name": "account",
          "type": "address"
        }
      ],
      "name": "MarketExited",
      "type": "event"
    },
    {
      "anonymous": false,
      "inputs": [
        {
          "indexed": false,
          "internalType": "contract MToken",
          "name": "mToken",
          "type": "address"
        }
      ],
      "name": "MarketListed",
      "type": "event"
    },
    {
      "anonymous": false,
      "inputs": [
        {
          "indexed": true,
          "internalType": "contract MToken",
          "name": "mToken",
          "type": "address"
        },
        {
          "indexed": false,
          "internalType": "uint256",
          "name": "newBorrowCap",
          "type": "uint256"
        }
      ],
      "name": "NewBorrowCap",
      "type": "event"
    },
    {
      "anonymous": false,
      "inputs": [
        {
          "indexed": false,
          "internalType": "address",
          "name": "oldBorrowCapGuardian",
          "type": "address"
        },
        {
          "indexed": false,
          "internalType": "address",
          "name": "newBorrowCapGuardian",
          "type": "address"
        }
      ],
      "name": "NewBorrowCapGuardian",
      "type": "event"
    },
    {
      "anonymous": false,
      "inputs": [
        {
          "indexed": false,
          "internalType": "uint256",
          "name": "oldCloseFactorMantissa",
          "type": "uint256"
        },
        {
          "indexed": false,
          "internalType": "uint256",
          "name": "newCloseFactorMantissa",
          "type": "uint256"
        }
      ],
      "name": "NewCloseFactor",
      "type": "event"
    },
    {
      "anonymous": false,
      "inputs": [
        {
          "indexed": false,
          "internalType": "contract MToken",
          "name": "mToken",
          "type": "address"
        },
        {
          "indexed": false,
          "internalType": "uint256",
          "name": "oldCollateralFactorMantissa",
          "type": "uint256"
        },
        {
          "indexed": false,
          "internalType": "uint256",
          "name": "newCollateralFactorMantissa",
          "type": "uint256"
        }
      ],
      "name": "NewCollateralFactor",
      "type": "event"
    },
    {
      "anonymous": false,
      "inputs": [
        {
          "indexed": false,
          "internalType": "uint16",
          "name": "oldGasAmount",
          "type": "uint16"
        },
        {
          "indexed": false,
          "internalType": "uint16",
          "name": "newGasAmount",
          "type": "uint16"
        }
      ],
      "name": "NewGasAmount",
      "type": "event"
    },
    {
      "anonymous": false,
      "inputs": [
        {
          "indexed": false,
          "internalType": "uint256",
          "name": "oldLiquidationIncentiveMantissa",
          "type": "uint256"
        },
        {
          "indexed": false,
          "internalType": "uint256",
          "name": "newLiquidationIncentiveMantissa",
          "type": "uint256"
        }
      ],
      "name": "NewLiquidationIncentive",
      "type": "event"
    },
    {
      "anonymous": false,
      "inputs": [
        {
          "indexed": false,
          "internalType": "address",
          "name": "oldPauseGuardian",
          "type": "address"
        },
        {
          "indexed": false,
          "internalType": "address",
          "name": "newPauseGuardian",
          "type": "address"
        }
      ],
      "name": "NewPauseGuardian",
      "type": "event"
    },
    {
      "anonymous": false,
      "inputs": [
        {
          "indexed": false,
          "internalType": "contract PriceOracle",
          "name": "oldPriceOracle",
          "type": "address"
        },
        {
          "indexed": false,
          "internalType": "contract PriceOracle",
          "name": "newPriceOracle",
          "type": "address"
        }
      ],
      "name": "NewPriceOracle",
      "type": "event"
    },
    {
      "anonymous": false,
      "inputs": [
        {
          "indexed": false,
          "internalType": "uint8",
          "name": "rewardToken",
          "type": "uint8"
        },
        {
          "indexed": true,
          "internalType": "contract MToken",
          "name": "mToken",
          "type": "address"
        },
        {
          "indexed": false,
          "internalType": "uint256",
          "name": "newSupplyRewardSpeed",
          "type": "uint256"
        }
      ],
      "name": "SupplyRewardSpeedUpdated",
      "type": "event"
    },
    {
      "anonymous": false,
      "inputs": [
        {
          "indexed": false,
          "internalType": "address",
          "name": "recipient",
          "type": "address"
        },
        {
          "indexed": false,
          "internalType": "uint256",
          "name": "amount",
          "type": "uint256"
        }
      ],
      "name": "WellGranted",
      "type": "event"
    },
    {
      "payable": true,
      "stateMutability": "payable",
      "type": "fallback"
    },
    {
      "constant": false,
      "inputs": [
        {
          "internalType": "contract Unitroller",
          "name": "unitroller",
          "type": "address"
        }
      ],
      "name": "_become",
      "outputs": [],
      "payable": false,
      "stateMutability": "nonpayable",
      "type": "function"
    },
    {
      "constant": true,
      "inputs": [],
      "name": "_borrowGuardianPaused",
      "outputs": [
        {
          "internalType": "bool",
          "name": "",
          "type": "bool"
        }
      ],
      "payable": false,
      "stateMutability": "view",
      "type": "function"
    },
    {
      "constant": false,
      "inputs": [
        {
          "internalType": "address payable",
          "name": "recipient",
          "type": "address"
        },
        {
          "internalType": "uint256",
          "name": "amount",
          "type": "uint256"
        }
      ],
      "name": "_grantWell",
      "outputs": [],
      "payable": false,
      "stateMutability": "nonpayable",
      "type": "function"
    },
    {
      "constant": true,
      "inputs": [],
      "name": "_mintGuardianPaused",
      "outputs": [
        {
          "internalType": "bool",
          "name": "",
          "type": "bool"
        }
      ],
      "payable": false,
      "stateMutability": "view",
      "type": "function"
    },
    {
      "constant": false,
      "inputs": [
        {
          "internalType": "address",
          "name": "newBorrowCapGuardian",
          "type": "address"
        }
      ],
      "name": "_setBorrowCapGuardian",
      "outputs": [],
      "payable": false,
      "stateMutability": "nonpayable",
      "type": "function"
    },
    {
      "constant": false,
      "inputs": [
        {
          "internalType": "contract MToken",
          "name": "mToken",
          "type": "address"
        },
        {
          "internalType": "bool",
          "name": "state",
          "type": "bool"
        }
      ],
      "name": "_setBorrowPaused",
      "outputs": [
        {
          "internalType": "bool",
          "name": "",
          "type": "bool"
        }
      ],
      "payable": false,
      "stateMutability": "nonpayable",
      "type": "function"
    },
    {
      "constant": false,
      "inputs": [
        {
          "internalType": "uint256",
          "name": "newCloseFactorMantissa",
          "type": "uint256"
        }
      ],
      "name": "_setCloseFactor",
      "outputs": [
        {
          "internalType": "uint256",
          "name": "",
          "type": "uint256"
        }
      ],
      "payable": false,
      "stateMutability": "nonpayable",
      "type": "function"
    },
    {
      "constant": false,
      "inputs": [
        {
          "internalType": "contract MToken",
          "name": "mToken",
          "type": "address"
        },
        {
          "internalType": "uint256",
          "name": "newCollateralFactorMantissa",
          "type": "uint256"
        }
      ],
      "name": "_setCollateralFactor",
      "outputs": [
        {
          "internalType": "uint256",
          "name": "",
          "type": "uint256"
        }
      ],
      "payable": false,
      "stateMutability": "nonpayable",
      "type": "function"
    },
    {
      "constant": false,
      "inputs": [
        {
          "internalType": "uint16",
          "name": "newGasAmount",
          "type": "uint16"
        }
      ],
      "name": "_setGasAmount",
      "outputs": [
        {
          "internalType": "uint256",
          "name": "",
          "type": "uint256"
        }
      ],
      "payable": false,
      "stateMutability": "nonpayable",
      "type": "function"
    },
    {
      "constant": false,
      "inputs": [
        {
          "internalType": "uint256",
          "name": "newLiquidationIncentiveMantissa",
          "type": "uint256"
        }
      ],
      "name": "_setLiquidationIncentive",
      "outputs": [
        {
          "internalType": "uint256",
          "name": "",
          "type": "uint256"
        }
      ],
      "payable": false,
      "stateMutability": "nonpayable",
      "type": "function"
    },
    {
      "constant": false,
      "inputs": [
        {
          "internalType": "contract MToken[]",
          "name": "mTokens",
          "type": "address[]"
        },
        {
          "internalType": "uint256[]",
          "name": "newBorrowCaps",
          "type": "uint256[]"
        }
      ],
      "name": "_setMarketBorrowCaps",
      "outputs": [],
      "payable": false,
      "stateMutability": "nonpayable",
      "type": "function"
    },
    {
      "constant": false,
      "inputs": [
        {
          "internalType": "contract MToken",
          "name": "mToken",
          "type": "address"
        },
        {
          "internalType": "bool",
          "name": "state",
          "type": "bool"
        }
      ],
      "name": "_setMintPaused",
      "outputs": [
        {
          "internalType": "bool",
          "name": "",
          "type": "bool"
        }
      ],
      "payable": false,
      "stateMutability": "nonpayable",
      "type": "function"
    },
    {
      "constant": false,
      "inputs": [
        {
          "internalType": "address",
          "name": "newPauseGuardian",
          "type": "address"
        }
      ],
      "name": "_setPauseGuardian",
      "outputs": [
        {
          "internalType": "uint256",
          "name": "",
          "type": "uint256"
        }
      ],
      "payable": false,
      "stateMutability": "nonpayable",
      "type": "function"
    },
    {
      "constant": false,
      "inputs": [
        {
          "internalType": "contract PriceOracle",
          "name": "newOracle",
          "type": "address"
        }
      ],
      "name": "_setPriceOracle",
      "outputs": [
        {
          "internalType": "uint256",
          "name": "",
          "type": "uint256"
        }
      ],
      "payable": false,
      "stateMutability": "nonpayable",
      "type": "function"
    },
    {
      "constant": false,
      "inputs": [
        {
          "internalType": "uint8",
          "name": "rewardType",
          "type": "uint8"
        },
        {
          "internalType": "contract MToken",
          "name": "mToken",
          "type": "address"
        },
        {
          "internalType": "uint256",
          "name": "supplyRewardSpeed",
          "type": "uint256"
        },
        {
          "internalType": "uint256",
          "name": "borrowRewardSpeed",
          "type": "uint256"
        }
      ],
      "name": "_setRewardSpeed",
      "outputs": [],
      "payable": false,
      "stateMutability": "nonpayable",
      "type": "function"
    },
    {
      "constant": false,
      "inputs": [
        {
          "internalType": "bool",
          "name": "state",
          "type": "bool"
        }
      ],
      "name": "_setSeizePaused",
      "outputs": [
        {
          "internalType": "bool",
          "name": "",
          "type": "bool"
        }
      ],
      "payable": false,
      "stateMutability": "nonpayable",
      "type": "function"
    },
    {
      "constant": false,
      "inputs": [
        {
          "internalType": "bool",
          "name": "state",
          "type": "bool"
        }
      ],
      "name": "_setTransferPaused",
      "outputs": [
        {
          "internalType": "bool",
          "name": "",
          "type": "bool"
        }
      ],
      "payable": false,
      "stateMutability": "nonpayable",
      "type": "function"
    },
    {
      "constant": false,
      "inputs": [
        {
          "internalType": "contract MToken",
          "name": "mToken",
          "type": "address"
        }
      ],
      "name": "_supportMarket",
      "outputs": [
        {
          "internalType": "uint256",
          "name": "",
          "type": "uint256"
        }
      ],
      "payable": false,
      "stateMutability": "nonpayable",
      "type": "function"
    },
    {
      "constant": true,
      "inputs": [
        {
          "internalType": "address",
          "name": "",
          "type": "address"
        },
        {
          "internalType": "uint256",
          "name": "",
          "type": "uint256"
        }
      ],
      "name": "accountAssets",
      "outputs": [
        {
          "internalType": "contract MToken",
          "name": "",
          "type": "address"
        }
      ],
      "payable": false,
      "stateMutability": "view",
      "type": "function"
    },
    {
      "constant": true,
      "inputs": [],
      "name": "admin",
      "outputs": [
        {
          "internalType": "address",
          "name": "",
          "type": "address"
        }
      ],
      "payable": false,
      "stateMutability": "view",
      "type": "function"
    },
    {
      "constant": true,
      "inputs": [
        {
          "internalType": "uint256",
          "name": "",
          "type": "uint256"
        }
      ],
      "name": "allMarkets",
      "outputs": [
        {
          "internalType": "contract MToken",
          "name": "",
          "type": "address"
        }
      ],
      "payable": false,
      "stateMutability": "view",
      "type": "function"
    },
    {
      "constant": false,
      "inputs": [
        {
          "internalType": "address",
          "name": "mToken",
          "type": "address"
        },
        {
          "internalType": "address",
          "name": "borrower",
          "type": "address"
        },
        {
          "internalType": "uint256",
          "name": "borrowAmount",
          "type": "uint256"
        }
      ],
      "name": "borrowAllowed",
      "outputs": [
        {
          "internalType": "uint256",
          "name": "",
          "type": "uint256"
        }
      ],
      "payable": false,
      "stateMutability": "nonpayable",
      "type": "function"
    },
    {
      "constant": true,
      "inputs": [],
      "name": "borrowCapGuardian",
      "outputs": [
        {
          "internalType": "address",
          "name": "",
          "type": "address"
        }
      ],
      "payable": false,
      "stateMutability": "view",
      "type": "function"
    },
    {
      "constant": true,
      "inputs": [
        {
          "internalType": "address",
          "name": "",
          "type": "address"
        }
      ],
      "name": "borrowCaps",
      "outputs": [
        {
          "internalType": "uint256",
          "name": "",
          "type": "uint256"
        }
      ],
      "payable": false,
      "stateMutability": "view",
      "type": "function"
    },
    {
      "constant": true,
      "inputs": [
        {
          "internalType": "address",
          "name": "",
          "type": "address"
        }
      ],
      "name": "borrowGuardianPaused",
      "outputs": [
        {
          "internalType": "bool",
          "name": "",
          "type": "bool"
        }
      ],
      "payable": false,
      "stateMutability": "view",
      "type": "function"
    },
    {
      "constant": true,
      "inputs": [
        {
          "internalType": "uint8",
          "name": "",
          "type": "uint8"
        },
        {
          "internalType": "address",
          "name": "",
          "type": "address"
        }
      ],
      "name": "borrowRewardSpeeds",
      "outputs": [
        {
          "internalType": "uint256",
          "name": "",
          "type": "uint256"
        }
      ],
      "payable": false,
      "stateMutability": "view",
      "type": "function"
    },
    {
      "constant": false,
      "inputs": [
        {
          "internalType": "address",
          "name": "mToken",
          "type": "address"
        },
        {
          "internalType": "address",
          "name": "borrower",
          "type": "address"
        },
        {
          "internalType": "uint256",
          "name": "borrowAmount",
          "type": "uint256"
        }
      ],
      "name": "borrowVerify",
      "outputs": [],
      "payable": false,
      "stateMutability": "nonpayable",
      "type": "function"
    },
    {
      "constant": true,
      "inputs": [
        {
          "internalType": "address",
          "name": "account",
          "type": "address"
        },
        {
          "internalType": "contract MToken",
          "name": "mToken",
          "type": "address"
        }
      ],
      "name": "checkMembership",
      "outputs": [
        {
          "internalType": "bool",
          "name": "",
          "type": "bool"
        }
      ],
      "payable": false,
      "stateMutability": "view",
      "type": "function"
    },
    {
      "constant": false,
      "inputs": [
        {
          "internalType": "uint8",
          "name": "rewardType",
          "type": "uint8"
        },
        {
          "internalType": "address payable",
          "name": "holder",
          "type": "address"
        }
      ],
      "name": "claimReward",
      "outputs": [],
      "payable": false,
      "stateMutability": "nonpayable",
      "type": "function"
    },
    {
      "constant": false,
      "inputs": [
        {
          "internalType": "uint8",
          "name": "rewardType",
          "type": "uint8"
        },
        {
          "internalType": "address payable",
          "name": "holder",
          "type": "address"
        },
        {
          "internalType": "contract MToken[]",
          "name": "mTokens",
          "type": "address[]"
        }
      ],
      "name": "claimReward",
      "outputs": [],
      "payable": false,
      "stateMutability": "nonpayable",
      "type": "function"
    },
    {
      "constant": false,
      "inputs": [
        {
          "internalType": "uint8",
          "name": "rewardType",
          "type": "uint8"
        },
        {
          "internalType": "address payable[]",
          "name": "holders",
          "type": "address[]"
        },
        {
          "internalType": "contract MToken[]",
          "name": "mTokens",
          "type": "address[]"
        },
        {
          "internalType": "bool",
          "name": "borrowers",
          "type": "bool"
        },
        {
          "internalType": "bool",
          "name": "suppliers",
          "type": "bool"
        }
      ],
      "name": "claimReward",
      "outputs": [],
      "payable": true,
      "stateMutability": "payable",
      "type": "function"
    },
    {
      "constant": true,
      "inputs": [],
      "name": "closeFactorMantissa",
      "outputs": [
        {
          "internalType": "uint256",
          "name": "",
          "type": "uint256"
        }
      ],
      "payable": false,
      "stateMutability": "view",
      "type": "function"
    },
    {
      "constant": true,
      "inputs": [],
      "name": "comptrollerImplementation",
      "outputs": [
        {
          "internalType": "address",
          "name": "",
          "type": "address"
        }
      ],
      "payable": false,
      "stateMutability": "view",
      "type": "function"
    },
    {
      "constant": false,
      "inputs": [
        {
          "internalType": "address[]",
          "name": "mTokens",
          "type": "address[]"
        }
      ],
      "name": "enterMarkets",
      "outputs": [
        {
          "internalType": "uint256[]",
          "name": "",
          "type": "uint256[]"
        }
      ],
      "payable": false,
      "stateMutability": "nonpayable",
      "type": "function"
    },
    {
      "constant": false,
      "inputs": [
        {
          "internalType": "address",
          "name": "mTokenAddress",
          "type": "address"
        }
      ],
      "name": "exitMarket",
      "outputs": [
        {
          "internalType": "uint256",
          "name": "",
          "type": "uint256"
        }
      ],
      "payable": false,
      "stateMutability": "nonpayable",
      "type": "function"
    },
    {
      "constant": true,
      "inputs": [],
      "name": "gasAmount",
      "outputs": [
        {
          "internalType": "uint16",
          "name": "",
          "type": "uint16"
        }
      ],
      "payable": false,
      "stateMutability": "view",
      "type": "function"
    },
    {
      "constant": true,
      "inputs": [
        {
          "internalType": "address",
          "name": "account",
          "type": "address"
        }
      ],
      "name": "getAccountLiquidity",
      "outputs": [
        {
          "internalType": "uint256",
          "name": "",
          "type": "uint256"
        },
        {
          "internalType": "uint256",
          "name": "",
          "type": "uint256"
        },
        {
          "internalType": "uint256",
          "name": "",
          "type": "uint256"
        }
      ],
      "payable": false,
      "stateMutability": "view",
      "type": "function"
    },
    {
      "constant": true,
      "inputs": [],
      "name": "getAllMarkets",
      "outputs": [
        {
          "internalType": "contract MToken[]",
          "name": "",
          "type": "address[]"
        }
      ],
      "payable": false,
      "stateMutability": "view",
      "type": "function"
    },
    {
      "constant": true,
      "inputs": [
        {
          "internalType": "address",
          "name": "account",
          "type": "address"
        }
      ],
      "name": "getAssetsIn",
      "outputs": [
        {
          "internalType": "contract MToken[]",
          "name": "",
          "type": "address[]"
        }
      ],
      "payable": false,
      "stateMutability": "view",
      "type": "function"
    },
    {
      "constant": true,
      "inputs": [],
      "name": "getBlockTimestamp",
      "outputs": [
        {
          "internalType": "uint256",
          "name": "",
          "type": "uint256"
        }
      ],
      "payable": false,
      "stateMutability": "view",
      "type": "function"
    },
    {
      "constant": true,
      "inputs": [
        {
          "internalType": "address",
          "name": "account",
          "type": "address"
        },
        {
          "internalType": "address",
          "name": "mTokenModify",
          "type": "address"
        },
        {
          "internalType": "uint256",
          "name": "redeemTokens",
          "type": "uint256"
        },
        {
          "internalType": "uint256",
          "name": "borrowAmount",
          "type": "uint256"
        }
      ],
      "name": "getHypotheticalAccountLiquidity",
      "outputs": [
        {
          "internalType": "uint256",
          "name": "",
          "type": "uint256"
        },
        {
          "internalType": "uint256",
          "name": "",
          "type": "uint256"
        },
        {
          "internalType": "uint256",
          "name": "",
          "type": "uint256"
        }
      ],
      "payable": false,
      "stateMutability": "view",
      "type": "function"
    },
    {
      "constant": true,
      "inputs": [],
      "name": "initialIndexConstant",
      "outputs": [
        {
          "internalType": "uint224",
          "name": "",
          "type": "uint224"
        }
      ],
      "payable": false,
      "stateMutability": "view",
      "type": "function"
    },
    {
      "constant": true,
      "inputs": [],
      "name": "isComptroller",
      "outputs": [
        {
          "internalType": "bool",
          "name": "",
          "type": "bool"
        }
      ],
      "payable": false,
      "stateMutability": "view",
      "type": "function"
    },
    {
      "constant": false,
      "inputs": [
        {
          "internalType": "address",
          "name": "mTokenBorrowed",
          "type": "address"
        },
        {
          "internalType": "address",
          "name": "mTokenCollateral",
          "type": "address"
        },
        {
          "internalType": "address",
          "name": "liquidator",
          "type": "address"
        },
        {
          "internalType": "address",
          "name": "borrower",
          "type": "address"
        },
        {
          "internalType": "uint256",
          "name": "repayAmount",
          "type": "uint256"
        }
      ],
      "name": "liquidateBorrowAllowed",
      "outputs": [
        {
          "internalType": "uint256",
          "name": "",
          "type": "uint256"
        }
      ],
      "payable": false,
      "stateMutability": "nonpayable",
      "type": "function"
    },
    {
      "constant": false,
      "inputs": [
        {
          "internalType": "address",
          "name": "mTokenBorrowed",
          "type": "address"
        },
        {
          "internalType": "address",
          "name": "mTokenCollateral",
          "type": "address"
        },
        {
          "internalType": "address",
          "name": "liquidator",
          "type": "address"
        },
        {
          "internalType": "address",
          "name": "borrower",
          "type": "address"
        },
        {
          "internalType": "uint256",
          "name": "actualRepayAmount",
          "type": "uint256"
        },
        {
          "internalType": "uint256",
          "name": "seizeTokens",
          "type": "uint256"
        }
      ],
      "name": "liquidateBorrowVerify",
      "outputs": [],
      "payable": false,
      "stateMutability": "nonpayable",
      "type": "function"
    },
    {
      "constant": true,
      "inputs": [
        {
          "internalType": "address",
          "name": "mTokenBorrowed",
          "type": "address"
        },
        {
          "internalType": "address",
          "name": "mTokenCollateral",
          "type": "address"
        },
        {
          "internalType": "uint256",
          "name": "actualRepayAmount",
          "type": "uint256"
        }
      ],
      "name": "liquidateCalculateSeizeTokens",
      "outputs": [
        {
          "internalType": "uint256",
          "name": "",
          "type": "uint256"
        },
        {
          "internalType": "uint256",
          "name": "",
          "type": "uint256"
        }
      ],
      "payable": false,
      "stateMutability": "view",
      "type": "function"
    },
    {
      "constant": true,
      "inputs": [],
      "name": "liquidationIncentiveMantissa",
      "outputs": [
        {
          "internalType": "uint256",
          "name": "",
          "type": "uint256"
        }
      ],
      "payable": false,
      "stateMutability": "view",
      "type": "function"
    },
    {
      "constant": true,
      "inputs": [
        {
          "internalType": "address",
          "name": "",
          "type": "address"
        }
      ],
      "name": "markets",
      "outputs": [
        {
          "internalType": "bool",
          "name": "isListed",
          "type": "bool"
        },
        {
          "internalType": "uint256",
          "name": "collateralFactorMantissa",
          "type": "uint256"
        },
        {
          "internalType": "bool",
          "name": "isWelled",
          "type": "bool"
        }
      ],
      "payable": false,
      "stateMutability": "view",
      "type": "function"
    },
    {
      "constant": true,
      "inputs": [],
      "name": "maxAssets",
      "outputs": [
        {
          "internalType": "uint256",
          "name": "",
          "type": "uint256"
        }
      ],
      "payable": false,
      "stateMutability": "view",
      "type": "function"
    },
    {
      "constant": false,
      "inputs": [
        {
          "internalType": "address",
          "name": "mToken",
          "type": "address"
        },
        {
          "internalType": "address",
          "name": "minter",
          "type": "address"
        },
        {
          "internalType": "uint256",
          "name": "mintAmount",
          "type": "uint256"
        }
      ],
      "name": "mintAllowed",
      "outputs": [
        {
          "internalType": "uint256",
          "name": "",
          "type": "uint256"
        }
      ],
      "payable": false,
      "stateMutability": "nonpayable",
      "type": "function"
    },
    {
      "constant": true,
      "inputs": [
        {
          "internalType": "address",
          "name": "",
          "type": "address"
        }
      ],
      "name": "mintGuardianPaused",
      "outputs": [
        {
          "internalType": "bool",
          "name": "",
          "type": "bool"
        }
      ],
      "payable": false,
      "stateMutability": "view",
      "type": "function"
    },
    {
      "constant": false,
      "inputs": [
        {
          "internalType": "address",
          "name": "mToken",
          "type": "address"
        },
        {
          "internalType": "address",
          "name": "minter",
          "type": "address"
        },
        {
          "internalType": "uint256",
          "name": "actualMintAmount",
          "type": "uint256"
        },
        {
          "internalType": "uint256",
          "name": "mintTokens",
          "type": "uint256"
        }
      ],
      "name": "mintVerify",
      "outputs": [],
      "payable": false,
      "stateMutability": "nonpayable",
      "type": "function"
    },
    {
      "constant": true,
      "inputs": [],
      "name": "oracle",
      "outputs": [
        {
          "internalType": "contract PriceOracle",
          "name": "",
          "type": "address"
        }
      ],
      "payable": false,
      "stateMutability": "view",
      "type": "function"
    },
    {
      "constant": true,
      "inputs": [],
      "name": "pauseGuardian",
      "outputs": [
        {
          "internalType": "address",
          "name": "",
          "type": "address"
        }
      ],
      "payable": false,
      "stateMutability": "view",
      "type": "function"
    },
    {
      "constant": true,
      "inputs": [],
      "name": "pendingAdmin",
      "outputs": [
        {
          "internalType": "address",
          "name": "",
          "type": "address"
        }
      ],
      "payable": false,
      "stateMutability": "view",
      "type": "function"
    },
    {
      "constant": true,
      "inputs": [],
      "name": "pendingComptrollerImplementation",
      "outputs": [
        {
          "internalType": "address",
          "name": "",
          "type": "address"
        }
      ],
      "payable": false,
      "stateMutability": "view",
      "type": "function"
    },
    {
      "constant": false,
      "inputs": [
        {
          "internalType": "address",
          "name": "mToken",
          "type": "address"
        },
        {
          "internalType": "address",
          "name": "redeemer",
          "type": "address"
        },
        {
          "internalType": "uint256",
          "name": "redeemTokens",
          "type": "uint256"
        }
      ],
      "name": "redeemAllowed",
      "outputs": [
        {
          "internalType": "uint256",
          "name": "",
          "type": "uint256"
        }
      ],
      "payable": false,
      "stateMutability": "nonpayable",
      "type": "function"
    },
    {
      "constant": false,
      "inputs": [
        {
          "internalType": "address",
          "name": "mToken",
          "type": "address"
        },
        {
          "internalType": "address",
          "name": "redeemer",
          "type": "address"
        },
        {
          "internalType": "uint256",
          "name": "redeemAmount",
          "type": "uint256"
        },
        {
          "internalType": "uint256",
          "name": "redeemTokens",
          "type": "uint256"
        }
      ],
      "name": "redeemVerify",
      "outputs": [],
      "payable": false,
      "stateMutability": "nonpayable",
      "type": "function"
    },
    {
      "constant": false,
      "inputs": [
        {
          "internalType": "address",
          "name": "mToken",
          "type": "address"
        },
        {
          "internalType": "address",
          "name": "payer",
          "type": "address"
        },
        {
          "internalType": "address",
          "name": "borrower",
          "type": "address"
        },
        {
          "internalType": "uint256",
          "name": "repayAmount",
          "type": "uint256"
        }
      ],
      "name": "repayBorrowAllowed",
      "outputs": [
        {
          "internalType": "uint256",
          "name": "",
          "type": "uint256"
        }
      ],
      "payable": false,
      "stateMutability": "nonpayable",
      "type": "function"
    },
    {
      "constant": false,
      "inputs": [
        {
          "internalType": "address",
          "name": "mToken",
          "type": "address"
        },
        {
          "internalType": "address",
          "name": "payer",
          "type": "address"
        },
        {
          "internalType": "address",
          "name": "borrower",
          "type": "address"
        },
        {
          "internalType": "uint256",
          "name": "actualRepayAmount",
          "type": "uint256"
        },
        {
          "internalType": "uint256",
          "name": "borrowerIndex",
          "type": "uint256"
        }
      ],
      "name": "repayBorrowVerify",
      "outputs": [],
      "payable": false,
      "stateMutability": "nonpayable",
      "type": "function"
    },
    {
      "constant": true,
      "inputs": [
        {
          "internalType": "uint8",
          "name": "",
          "type": "uint8"
        },
        {
          "internalType": "address",
          "name": "",
          "type": "address"
        }
      ],
      "name": "rewardAccrued",
      "outputs": [
        {
          "internalType": "uint256",
          "name": "",
          "type": "uint256"
        }
      ],
      "payable": false,
      "stateMutability": "view",
      "type": "function"
    },
    {
      "constant": true,
      "inputs": [
        {
          "internalType": "uint8",
          "name": "",
          "type": "uint8"
        },
        {
          "internalType": "address",
          "name": "",
          "type": "address"
        }
      ],
      "name": "rewardBorrowState",
      "outputs": [
        {
          "internalType": "uint224",
          "name": "index",
          "type": "uint224"
        },
        {
          "internalType": "uint32",
          "name": "timestamp",
          "type": "uint32"
        }
      ],
      "payable": false,
      "stateMutability": "view",
      "type": "function"
    },
    {
      "constant": true,
      "inputs": [
        {
          "internalType": "uint8",
          "name": "",
          "type": "uint8"
        },
        {
          "internalType": "address",
          "name": "",
          "type": "address"
        },
        {
          "internalType": "address",
          "name": "",
          "type": "address"
        }
      ],
      "name": "rewardBorrowerIndex",
      "outputs": [
        {
          "internalType": "uint256",
          "name": "",
          "type": "uint256"
        }
      ],
      "payable": false,
      "stateMutability": "view",
      "type": "function"
    },
    {
      "constant": true,
      "inputs": [],
      "name": "rewardGlmr",
      "outputs": [
        {
          "internalType": "uint8",
          "name": "",
          "type": "uint8"
        }
      ],
      "payable": false,
      "stateMutability": "view",
      "type": "function"
    },
    {
      "constant": true,
      "inputs": [
        {
          "internalType": "uint8",
          "name": "",
          "type": "uint8"
        },
        {
          "internalType": "address",
          "name": "",
          "type": "address"
        },
        {
          "internalType": "address",
          "name": "",
          "type": "address"
        }
      ],
      "name": "rewardSupplierIndex",
      "outputs": [
        {
          "internalType": "uint256",
          "name": "",
          "type": "uint256"
        }
      ],
      "payable": false,
      "stateMutability": "view",
      "type": "function"
    },
    {
      "constant": true,
      "inputs": [
        {
          "internalType": "uint8",
          "name": "",
          "type": "uint8"
        },
        {
          "internalType": "address",
          "name": "",
          "type": "address"
        }
      ],
      "name": "rewardSupplyState",
      "outputs": [
        {
          "internalType": "uint224",
          "name": "index",
          "type": "uint224"
        },
        {
          "internalType": "uint32",
          "name": "timestamp",
          "type": "uint32"
        }
      ],
      "payable": false,
      "stateMutability": "view",
      "type": "function"
    },
    {
      "constant": true,
      "inputs": [],
      "name": "rewardWell",
      "outputs": [
        {
          "internalType": "uint8",
          "name": "",
          "type": "uint8"
        }
      ],
      "payable": false,
      "stateMutability": "view",
      "type": "function"
    },
    {
      "constant": false,
      "inputs": [
        {
          "internalType": "address",
          "name": "mTokenCollateral",
          "type": "address"
        },
        {
          "internalType": "address",
          "name": "mTokenBorrowed",
          "type": "address"
        },
        {
          "internalType": "address",
          "name": "liquidator",
          "type": "address"
        },
        {
          "internalType": "address",
          "name": "borrower",
          "type": "address"
        },
        {
          "internalType": "uint256",
          "name": "seizeTokens",
          "type": "uint256"
        }
      ],
      "name": "seizeAllowed",
      "outputs": [
        {
          "internalType": "uint256",
          "name": "",
          "type": "uint256"
        }
      ],
      "payable": false,
      "stateMutability": "nonpayable",
      "type": "function"
    },
    {
      "constant": true,
      "inputs": [],
      "name": "seizeGuardianPaused",
      "outputs": [
        {
          "internalType": "bool",
          "name": "",
          "type": "bool"
        }
      ],
      "payable": false,
      "stateMutability": "view",
      "type": "function"
    },
    {
      "constant": false,
      "inputs": [
        {
          "internalType": "address",
          "name": "mTokenCollateral",
          "type": "address"
        },
        {
          "internalType": "address",
          "name": "mTokenBorrowed",
          "type": "address"
        },
        {
          "internalType": "address",
          "name": "liquidator",
          "type": "address"
        },
        {
          "internalType": "address",
          "name": "borrower",
          "type": "address"
        },
        {
          "internalType": "uint256",
          "name": "seizeTokens",
          "type": "uint256"
        }
      ],
      "name": "seizeVerify",
      "outputs": [],
      "payable": false,
      "stateMutability": "nonpayable",
      "type": "function"
    },
    {
      "constant": false,
      "inputs": [
        {
          "internalType": "address",
          "name": "newWellAddress",
          "type": "address"
        }
      ],
      "name": "setWellAddress",
      "outputs": [],
      "payable": false,
      "stateMutability": "nonpayable",
      "type": "function"
    },
    {
      "constant": true,
      "inputs": [
        {
          "internalType": "uint8",
          "name": "",
          "type": "uint8"
        },
        {
          "internalType": "address",
          "name": "",
          "type": "address"
        }
      ],
      "name": "supplyRewardSpeeds",
      "outputs": [
        {
          "internalType": "uint256",
          "name": "",
          "type": "uint256"
        }
      ],
      "payable": false,
      "stateMutability": "view",
      "type": "function"
    },
    {
      "constant": false,
      "inputs": [
        {
          "internalType": "address",
          "name": "mToken",
          "type": "address"
        },
        {
          "internalType": "address",
          "name": "src",
          "type": "address"
        },
        {
          "internalType": "address",
          "name": "dst",
          "type": "address"
        },
        {
          "internalType": "uint256",
          "name": "transferTokens",
          "type": "uint256"
        }
      ],
      "name": "transferAllowed",
      "outputs": [
        {
          "internalType": "uint256",
          "name": "",
          "type": "uint256"
        }
      ],
      "payable": false,
      "stateMutability": "nonpayable",
      "type": "function"
    },
    {
      "constant": true,
      "inputs": [],
      "name": "transferGuardianPaused",
      "outputs": [
        {
          "internalType": "bool",
          "name": "",
          "type": "bool"
        }
      ],
      "payable": false,
      "stateMutability": "view",
      "type": "function"
    },
    {
      "constant": false,
      "inputs": [
        {
          "internalType": "address",
          "name": "mToken",
          "type": "address"
        },
        {
          "internalType": "address",
          "name": "src",
          "type": "address"
        },
        {
          "internalType": "address",
          "name": "dst",
          "type": "address"
        },
        {
          "internalType": "uint256",
          "name": "transferTokens",
          "type": "uint256"
        }
      ],
      "name": "transferVerify",
      "outputs": [],
      "payable": false,
      "stateMutability": "nonpayable",
      "type": "function"
    },
    {
      "constant": true,
      "inputs": [],
      "name": "wellAddress",
      "outputs": [
        {
          "internalType": "address",
          "name": "",
          "type": "address"
        }
      ],
      "payable": false,
      "stateMutability": "view",
      "type": "function"
    }
  ],
  "bytecode": "0x6080604052601a805463ffff000019166308fc000017905534801561002357600080fd5b50600080546001600160a01b03191633179055615fdb80620000466000396000f3fe6080604052600436106104465760003560e01c8063731f0c2b11610234578063bb82aa5e1161012e578063dce15449116100b6578063eabe7d911161007a578063eabe7d91146115eb578063ed302dfd1461162e578063ede4edd01461165f578063f47e187714611692578063f851a440146116a757610446565b8063dce154491461153a578063dcfbc0c714611573578063e4028eee14611588578063e6653f3d146115c1578063e8755446146115d657610446565b8063c488847b116100fd578063c488847b146113d0578063cf9cfb611461142c578063d02f735114611468578063d81c5e45146114bb578063da3d454c146114f757610446565b8063bb82aa5e14611288578063bdcdc2581461129d578063c2998238146112e6578063c376fada1461139457610446565b80638ebf6364116101bc578063ac0b0bb711610180578063ac0b0bb7146111d2578063b0772d0b146111e7578063b91e15a9146111fc578063b98c1e321461122f578063ba6a339a1461125d57610446565b80638ebf6364146110a0578063929fe9a1146110cc57806394b2294b14611107578063a76b3fda1461111c578063abfceffc1461114f57610446565b80637dc0d1d0116102035780637dc0d1d014610ea757806387f7630314610ebc5780638805714b14610ed157806388e972b8146110075780638e8f294b1461104b57610446565b8063731f0c2b14610d55578063744532ae14610d885780637937969d14610e4e578063796b89b914610e9257610446565b80634a5844321161034557806355ee1fe1116102cd578063607ef6c111610291578063607ef6c114610b8f57806367b50af914610c5a5780636a56947e14610c865780636d154ea514610ccf5780636d35bf9114610d0257610446565b806355ee1fe114610a605780635c77860514610a935780635ec88c7914610ad65780635f5af1aa14610b095780635fc7e71e14610b3c57610446565b80634e79238f116103145780634e79238f146109195780634ef4c3e1146109805780634fd42e17146109c357806351dff989146109ed57806352d84d1e14610a3657610446565b80634a584432146108345780634ada90af146108675780634b05e6451461087c5780634b3a0a74146108b557610446565b806324a3d622116103d3578063391957d711610397578063391957d71461070f5780633bcf7ec1146107425780633c94786f1461077d57806341c728b91461079257806347ef3b3b146107db57610446565b806324a3d6221461067a578063267822471461068f5780632d70db78146106a4578063317b0b77146106d057806333bb48f9146106fa57610446565b80631d504dc61161041a5780631d504dc6146105365780631d94cb94146105695780631ededc91146105b157806321af45691461060057806324008a621461063157610446565b80627e3dd21461044857806305b9783d146104715780630952c563146104bf57806318c882a5146104fb575b005b34801561045457600080fd5b5061045d6116bc565b604080519115158252519081900360200190f35b34801561047d57600080fd5b506104ad6004803603604081101561049457600080fd5b50803560ff1690602001356001600160a01b03166116c1565b60408051918252519081900360200190f35b3480156104cb57600080fd5b50610446600480360360408110156104e257600080fd5b50803560ff1690602001356001600160a01b03166116de565b34801561050757600080fd5b5061045d6004803603604081101561051e57600080fd5b506001600160a01b0381351690602001351515611747565b34801561054257600080fd5b506104466004803603602081101561055957600080fd5b50356001600160a01b03166118e7565b34801561057557600080fd5b506104466004803603608081101561058c57600080fd5b5060ff813516906001600160a01b036020820135169060408101359060600135611a46565b3480156105bd57600080fd5b50610446600480360360a08110156105d457600080fd5b506001600160a01b03813581169160208101358216916040820135169060608101359060800135611b02565b34801561060c57600080fd5b50610615611b09565b604080516001600160a01b039092168252519081900360200190f35b34801561063d57600080fd5b506104ad6004803603608081101561065457600080fd5b506001600160a01b03813581169160208101358216916040820135169060600135611b18565b34801561068657600080fd5b50610615611bd5565b34801561069b57600080fd5b50610615611be4565b3480156106b057600080fd5b5061045d600480360360208110156106c757600080fd5b50351515611bf3565b3480156106dc57600080fd5b506104ad600480360360208110156106f357600080fd5b5035611d2d565b34801561070657600080fd5b50610615611dda565b34801561071b57600080fd5b506104466004803603602081101561073257600080fd5b50356001600160a01b0316611de9565b34801561074e57600080fd5b5061045d6004803603604081101561076557600080fd5b506001600160a01b0381351690602001351515611e95565b34801561078957600080fd5b5061045d612030565b34801561079e57600080fd5b50610446600480360360808110156107b557600080fd5b506001600160a01b03813581169160208101359091169060408101359060600135612040565b3480156107e757600080fd5b50610446600480360360c08110156107fe57600080fd5b506001600160a01b0381358116916020810135821691604082013581169160608101359091169060808101359060a00135612045565b34801561084057600080fd5b506104ad6004803603602081101561085757600080fd5b50356001600160a01b031661204d565b34801561087357600080fd5b506104ad61205f565b34801561088857600080fd5b506104466004803603604081101561089f57600080fd5b506001600160a01b038135169060200135612065565b3480156108c157600080fd5b506108f1600480360360408110156108d857600080fd5b50803560ff1690602001356001600160a01b031661216a565b604080516001600160e01b03909316835263ffffffff90911660208301528051918290030190f35b34801561092557600080fd5b506109626004803603608081101561093c57600080fd5b506001600160a01b0381358116916020810135909116906040810135906060013561219f565b60408051938452602084019290925282820152519081900360600190f35b34801561098c57600080fd5b506104ad600480360360608110156109a357600080fd5b506001600160a01b038135811691602081013590911690604001356121d9565b3480156109cf57600080fd5b506104ad600480360360208110156109e657600080fd5b5035612276565b3480156109f957600080fd5b5061044660048036036080811015610a1057600080fd5b506001600160a01b038135811691602081013590911690604081013590606001356122e6565b348015610a4257600080fd5b5061061560048036036020811015610a5957600080fd5b503561233a565b348015610a6c57600080fd5b506104ad60048036036020811015610a8357600080fd5b50356001600160a01b0316612361565b348015610a9f57600080fd5b5061044660048036036060811015610ab657600080fd5b506001600160a01b038135811691602081013590911690604001356123e6565b348015610ae257600080fd5b5061096260048036036020811015610af957600080fd5b50356001600160a01b03166123eb565b348015610b1557600080fd5b506104ad60048036036020811015610b2c57600080fd5b50356001600160a01b0316612420565b348015610b4857600080fd5b506104ad600480360360a0811015610b5f57600080fd5b506001600160a01b03813581169160208101358216916040820135811691606081013590911690608001356124a4565b348015610b9b57600080fd5b5061044660048036036040811015610bb257600080fd5b810190602081018135600160201b811115610bcc57600080fd5b820183602082011115610bde57600080fd5b803590602001918460208302840111600160201b83111715610bff57600080fd5b919390929091602081019035600160201b811115610c1c57600080fd5b820183602082011115610c2e57600080fd5b803590602001918460208302840111600160201b83111715610c4f57600080fd5b509092509050612609565b348015610c6657600080fd5b50610c6f612799565b6040805161ffff9092168252519081900360200190f35b348015610c9257600080fd5b5061044660048036036080811015610ca957600080fd5b506001600160a01b03813581169160208101358216916040820135169060600135612040565b348015610cdb57600080fd5b5061045d60048036036020811015610cf257600080fd5b50356001600160a01b03166127a9565b348015610d0e57600080fd5b50610446600480360360a0811015610d2557600080fd5b506001600160a01b0381358116916020810135821691604082013581169160608101359091169060800135611b02565b348015610d6157600080fd5b5061045d60048036036020811015610d7857600080fd5b50356001600160a01b03166127be565b348015610d9457600080fd5b5061044660048036036060811015610dab57600080fd5b60ff823516916001600160a01b0360208201351691810190606081016040820135600160201b811115610ddd57600080fd5b820183602082011115610def57600080fd5b803590602001918460208302840111600160201b83111715610e1057600080fd5b9190808060200260200160405190810160405280939291908181526020018383602002808284376000920191909152509295506127d3945050505050565b348015610e5a57600080fd5b506104ad60048036036060811015610e7157600080fd5b5060ff813516906001600160a01b0360208201358116916040013516612831565b348015610e9e57600080fd5b506104ad612854565b348015610eb357600080fd5b50610615612859565b348015610ec857600080fd5b5061045d612868565b610446600480360360a0811015610ee757600080fd5b60ff8235169190810190604081016020820135600160201b811115610f0b57600080fd5b820183602082011115610f1d57600080fd5b803590602001918460208302840111600160201b83111715610f3e57600080fd5b9190808060200260200160405190810160405280939291908181526020018383602002808284376000920191909152509295949360208101935035915050600160201b811115610f8d57600080fd5b820183602082011115610f9f57600080fd5b803590602001918460208302840111600160201b83111715610fc057600080fd5b919080806020026020016040519081016040528093929190818152602001838360200280828437600092019190915250929550505050803515159150602001351515612878565b34801561101357600080fd5b506104ad6004803603606081101561102a57600080fd5b5060ff813516906001600160a01b0360208201358116916040013516612bb2565b34801561105757600080fd5b5061107e6004803603602081101561106e57600080fd5b50356001600160a01b0316612bd5565b6040805193151584526020840192909252151582820152519081900360600190f35b3480156110ac57600080fd5b5061045d600480360360208110156110c357600080fd5b50351515612bfb565b3480156110d857600080fd5b5061045d600480360360408110156110ef57600080fd5b506001600160a01b0381358116916020013516612d34565b34801561111357600080fd5b506104ad612d67565b34801561112857600080fd5b506104ad6004803603602081101561113f57600080fd5b50356001600160a01b0316612d6d565b34801561115b57600080fd5b506111826004803603602081101561117257600080fd5b50356001600160a01b0316612eca565b60408051602080825283518183015283519192839290830191858101910280838360005b838110156111be5781810151838201526020016111a6565b505050509050019250505060405180910390f35b3480156111de57600080fd5b5061045d612f53565b3480156111f357600080fd5b50611182612f63565b34801561120857600080fd5b506104466004803603602081101561121f57600080fd5b50356001600160a01b0316612fc5565b34801561123b57600080fd5b506104ad6004803603602081101561125257600080fd5b503561ffff16612ffe565b34801561126957600080fd5b50611272613098565b6040805160ff9092168252519081900360200190f35b34801561129457600080fd5b5061061561309d565b3480156112a957600080fd5b506104ad600480360360808110156112c057600080fd5b506001600160a01b038135811691602081013582169160408201351690606001356130ac565b3480156112f257600080fd5b506111826004803603602081101561130957600080fd5b810190602081018135600160201b81111561132357600080fd5b82018360208201111561133557600080fd5b803590602001918460208302840111600160201b8311171561135657600080fd5b919080806020026020016040519081016040528093929190818152602001838360200280828437600092019190915250929550613133945050505050565b3480156113a057600080fd5b506104ad600480360360408110156113b757600080fd5b50803560ff1690602001356001600160a01b03166131ca565b3480156113dc57600080fd5b50611413600480360360608110156113f357600080fd5b506001600160a01b038135811691602081013590911690604001356131e7565b6040805192835260208301919091528051918290030190f35b34801561143857600080fd5b506104ad6004803603604081101561144f57600080fd5b50803560ff1690602001356001600160a01b031661340f565b34801561147457600080fd5b506104ad600480360360a081101561148b57600080fd5b506001600160a01b038135811691602081013582169160408201358116916060810135909116906080013561342c565b3480156114c757600080fd5b506108f1600480360360408110156114de57600080fd5b50803560ff1690602001356001600160a01b03166135d7565b34801561150357600080fd5b506104ad6004803603606081101561151a57600080fd5b506001600160a01b0381358116916020810135909116906040013561360c565b34801561154657600080fd5b506106156004803603604081101561155d57600080fd5b506001600160a01b0381351690602001356139dc565b34801561157f57600080fd5b50610615613a11565b34801561159457600080fd5b506104ad600480360360408110156115ab57600080fd5b506001600160a01b038135169060200135613a20565b3480156115cd57600080fd5b5061045d613bd0565b3480156115e257600080fd5b506104ad613be0565b3480156115f757600080fd5b506104ad6004803603606081101561160e57600080fd5b506001600160a01b03813581169160208101359091169060400135613be6565b34801561163a57600080fd5b50611643613c18565b604080516001600160e01b039092168252519081900360200190f35b34801561166b57600080fd5b506104ad6004803603602081101561168257600080fd5b50356001600160a01b0316613c2b565b34801561169e57600080fd5b506112726116bc565b3480156116b357600080fd5b50610615613f3e565b600181565b601760209081526000928352604080842090915290825290205481565b6117438282600d80548060200260200160405190810160405280929190818152602001828054801561173957602002820191906000526020600020905b81546001600160a01b0316815260019091019060200180831161171b575b50505050506127d3565b5050565b6001600160a01b03821660009081526009602052604081205460ff1661179e5760405162461bcd60e51b8152600401808060200182810382526028815260200180615e916028913960400191505060405180910390fd5b600a546001600160a01b03163314806117c157506000546001600160a01b031633145b6117fc5760405162461bcd60e51b8152600401808060200182810382526027815260200180615ed96027913960400191505060405180910390fd5b6000546001600160a01b031633148061181757506001821515145b611861576040805162461bcd60e51b81526020600482015260166024820152756f6e6c792061646d696e2063616e20756e706175736560501b604482015290519081900360640190fd5b6001600160a01b0383166000818152600c6020908152604091829020805486151560ff199091168117909155825193845283830152606090830181905260069083015265426f72726f7760d01b6080830152517f71aec636243f9709bb0007ae15e9afb8150ab01716d75fd7573be5cc096e03b09181900360a00190a150805b92915050565b806001600160a01b031663f851a4406040518163ffffffff1660e01b815260040160206040518083038186803b15801561192057600080fd5b505afa158015611934573d6000803e3d6000fd5b505050506040513d602081101561194a57600080fd5b50516001600160a01b031633146119925760405162461bcd60e51b8152600401808060200182810382526027815260200180615f806027913960400191505060405180910390fd5b806001600160a01b031663c1e803346040518163ffffffff1660e01b8152600401602060405180830381600087803b1580156119cd57600080fd5b505af11580156119e1573d6000803e3d6000fd5b505050506040513d60208110156119f757600080fd5b505115611a43576040805162461bcd60e51b815260206004820152601560248201527418da185b99d9481b9bdd08185d5d1a1bdc9a5e9959605a1b604482015290519081900360640190fd5b50565b60018460ff161115611a97576040805162461bcd60e51b81526020600482015260156024820152741c995dd85c99151e5c19481a5cc81a5b9d985b1a59605a1b604482015290519081900360640190fd5b611a9f613f4d565b611af0576040805162461bcd60e51b815260206004820152601f60248201527f6f6e6c792061646d696e2063616e207365742072657761726420737065656400604482015290519081900360640190fd5b611afc84848484613f76565b50505050565b5050505050565b600e546001600160a01b031681565b6001600160a01b03841660009081526009602052604081205460ff16611b4057506009611bcd565b611b48615dd1565b6040518060200160405280876001600160a01b031663aa5af0fd6040518163ffffffff1660e01b815260040160206040518083038186803b158015611b8c57600080fd5b505afa158015611ba0573d6000803e3d6000fd5b505050506040513d6020811015611bb657600080fd5b505190529050611bc786858361445a565b60009150505b949350505050565b600a546001600160a01b031681565b6001546001600160a01b031681565b600a546000906001600160a01b0316331480611c1957506000546001600160a01b031633145b611c545760405162461bcd60e51b8152600401808060200182810382526027815260200180615ed96027913960400191505060405180910390fd5b6000546001600160a01b0316331480611c6f57506001821515145b611cb9576040805162461bcd60e51b81526020600482015260166024820152756f6e6c792061646d696e2063616e20756e706175736560501b604482015290519081900360640190fd5b600a8054831515600160b81b810260ff60b81b1990921691909117909155604080516020810192909252808252600582820152645365697a6560d81b6060830152517fef159d9a32b2472e32b098f954f3ce62d232939f1c207070b584df1814de2de09181900360800190a150805b919050565b600080546001600160a01b03163314611d8d576040805162461bcd60e51b815260206004820152601f60248201527f6f6e6c792061646d696e2063616e2073657420636c6f736520666163746f7200604482015290519081900360640190fd5b6005805490839055604080518281526020810185905281517f3b9670cf975d26958e754b57098eaa2ac914d8d2a31b83257997b9f346110fd9929181900390910190a160005b9392505050565b6018546001600160a01b031681565b6000546001600160a01b03163314611e325760405162461bcd60e51b8152600401808060200182810382526026815260200180615f006026913960400191505060405180910390fd5b600e80546001600160a01b038381166001600160a01b0319831681179093556040805191909216808252602082019390935281517feda98690e518e9a05f8ec6837663e188211b2da8f4906648b323f2c1d4434e29929181900390910190a15050565b6001600160a01b03821660009081526009602052604081205460ff16611eec5760405162461bcd60e51b8152600401808060200182810382526028815260200180615e916028913960400191505060405180910390fd5b600a546001600160a01b0316331480611f0f57506000546001600160a01b031633145b611f4a5760405162461bcd60e51b8152600401808060200182810382526027815260200180615ed96027913960400191505060405180910390fd5b6000546001600160a01b0316331480611f6557506001821515145b611faf576040805162461bcd60e51b81526020600482015260166024820152756f6e6c792061646d696e2063616e20756e706175736560501b604482015290519081900360640190fd5b6001600160a01b0383166000818152600b6020908152604091829020805486151560ff199091168117909155825193845283830152606090830181905260049083015263135a5b9d60e21b6080830152517f71aec636243f9709bb0007ae15e9afb8150ab01716d75fd7573be5cc096e03b09181900360a00190a150919050565b600a54600160a01b900460ff1681565b611afc565b505050505050565b600f6020526000908152604090205481565b60065481565b61206d613f4d565b6120be576040805162461bcd60e51b815260206004820152601960248201527f6f6e6c792061646d696e2063616e206772616e742057454c4c00000000000000604482015290519081900360640190fd5b60006120cc60008484614487565b90508015612121576040805162461bcd60e51b815260206004820152601b60248201527f696e73756666696369656e742057454c4c20666f72206772616e740000000000604482015290519081900360640190fd5b604080516001600160a01b03851681526020810184905281517f1853b1b217c07717d1bd67c3d6dfb7f3be46c742ce191f2134898040e035a180929181900390910190a1505050565b60146020908152600092835260408084209091529082529020546001600160e01b03811690600160e01b900463ffffffff1682565b6000806000806000806121b48a8a8a8a6146fe565b9250925092508260118111156121c657fe5b95509093509150505b9450945094915050565b6001600160a01b0383166000908152600b602052604081205460ff1615612238576040805162461bcd60e51b815260206004820152600e60248201526d1b5a5b9d081a5cc81c185d5cd95960921b604482015290519081900360640190fd5b6001600160a01b03841660009081526009602052604090205460ff166122625760095b9050611dd3565b61226c8484614a36565b6000949350505050565b600080546001600160a01b0316331461229c576122956001600b614a61565b9050611d28565b6006805490839055604080518281526020810185905281517faeba5a6c40a8ac138134bff1aaa65debf25971188a58804bad717f82f0ec1316929181900390910190a16000611dd3565b801580156122f45750600082115b15611afc576040805162461bcd60e51b815260206004820152601160248201527072656465656d546f6b656e73207a65726f60781b604482015290519081900360640190fd5b600d818154811061234757fe5b6000918252602090912001546001600160a01b0316905081565b600080546001600160a01b031633146123805761229560016010614a61565b600480546001600160a01b038481166001600160a01b0319831681179093556040805191909216808252602082019390935281517fd52b2b9b7e9ee655fcb95d2e5b9e0c9f69e7ef2b8e9d2d0ea78402d576d22e22929181900390910190a16000611dd3565b505050565b6000806000806000806124028760008060006146fe565b92509250925082601181111561241457fe5b97919650945092505050565b600080546001600160a01b0316331461243f5761229560016013614a61565b600a80546001600160a01b038481166001600160a01b0319831617928390556040805192821680845293909116602083015280517f0613b6ee6a04f0d09f390e4d9318894b9f6ac7fd83897cd8d18896ba579c401e9281900390910190a16000611dd3565b6001600160a01b03851660009081526009602052604081205460ff1615806124e557506001600160a01b03851660009081526009602052604090205460ff16155b156124f45760095b9050612600565b60008061250085614ac7565b9193509091506000905082601181111561251657fe5b146125305781601181111561252757fe5b92505050612600565b8061253c576003612527565b6000886001600160a01b03166395dd9193876040518263ffffffff1660e01b815260040180826001600160a01b03166001600160a01b0316815260200191505060206040518083038186803b15801561259457600080fd5b505afa1580156125a8573d6000803e3d6000fd5b505050506040513d60208110156125be57600080fd5b5051604080516020810190915260055481529091506000906125e09083614ae7565b9050808611156125f7576011945050505050612600565b60009450505050505b95945050505050565b6000546001600160a01b031633148061262c5750600e546001600160a01b031633145b6126675760405162461bcd60e51b8152600401808060200182810382526035815260200180615f266035913960400191505060405180910390fd5b8281811580159061267757508082145b6126b8576040805162461bcd60e51b815260206004820152600d60248201526c1a5b9d985b1a59081a5b9c1d5d609a1b604482015290519081900360640190fd5b60005b82811015612790578484828181106126cf57fe5b90506020020135600f60008989858181106126e657fe5b905060200201356001600160a01b03166001600160a01b03166001600160a01b031681526020019081526020016000208190555086868281811061272657fe5b905060200201356001600160a01b03166001600160a01b03167f6f1951b2aad10f3fc81b86d91105b413a5b3f847a34bbc5ce1904201b14438f686868481811061276c57fe5b905060200201356040518082815260200191505060405180910390a26001016126bb565b50505050505050565b601a5462010000900461ffff1681565b600c6020526000908152604090205460ff1681565b600b6020526000908152604090205460ff1681565b60408051600180825281830190925260609160208083019080388339019050509050828160008151811061280357fe5b60200260200101906001600160a01b031690816001600160a01b031681525050611afc848284600180612878565b601660209081526000938452604080852082529284528284209052825290205481565b425b90565b6004546001600160a01b031681565b600a54600160b01b900460ff1681565b60018560ff1611156128c9576040805162461bcd60e51b81526020600482015260156024820152741c995dd85c99151e5c19481a5cc81a5b9d985b1a59605a1b604482015290519081900360640190fd5b60005b83518110156120455760008482815181106128e357fe5b6020908102919091018101516001600160a01b0381166000908152600990925260409091205490915060ff16612958576040805162461bcd60e51b81526020600482015260156024820152741b585c9ad95d081b5d5cdd081899481b1a5cdd1959605a1b604482015290519081900360640190fd5b60018415151415612ad75761296b615dd1565b6040518060200160405280836001600160a01b031663aa5af0fd6040518163ffffffff1660e01b815260040160206040518083038186803b1580156129af57600080fd5b505afa1580156129c3573d6000803e3d6000fd5b505050506040513d60208110156129d957600080fd5b5051905290506129ea888383614b06565b60005b8751811015612ad457612a1589848a8481518110612a0757fe5b602002602001015185614e38565b612a858960ff16898381518110612a2857fe5b6020026020010151601760008d60ff1660ff16815260200190815260200160002060008c8681518110612a5757fe5b60200260200101516001600160a01b03166001600160a01b0316815260200190815260200160002054614487565b60ff8a1660009081526017602052604081208a519091908b9085908110612aa857fe5b6020908102919091018101516001600160a01b03168252810191909152604001600020556001016129ed565b50505b60018315151415612ba957612aec8782615088565b60005b8651811015612ba757612b168883898481518110612b0957fe5b602002602001015161537a565b612b588860ff16888381518110612b2957fe5b6020026020010151601760008c60ff1660ff16815260200190815260200160002060008b8681518110612a5757fe5b60ff8916600090815260176020526040812089519091908a9085908110612b7b57fe5b6020908102919091018101516001600160a01b0316825281019190915260400160002055600101612aef565b505b506001016128cc565b601560209081526000938452604080852082529284528284209052825290205481565b60096020526000908152604090208054600182015460039092015460ff91821692911683565b600a546000906001600160a01b0316331480612c2157506000546001600160a01b031633145b612c5c5760405162461bcd60e51b8152600401808060200182810382526027815260200180615ed96027913960400191505060405180910390fd5b6000546001600160a01b0316331480612c7757506001821515145b612cc1576040805162461bcd60e51b81526020600482015260166024820152756f6e6c792061646d696e2063616e20756e706175736560501b604482015290519081900360640190fd5b600a8054831515600160b01b810260ff60b01b1990921691909117909155604080516020810192909252808252600882820152672a3930b739b332b960c11b6060830152517fef159d9a32b2472e32b098f954f3ce62d232939f1c207070b584df1814de2de09181900360800190a15090565b6001600160a01b038082166000908152600960209081526040808320938616835260029093019052205460ff1692915050565b60075481565b600080546001600160a01b03163314612d8c5761229560016012614a61565b6001600160a01b03821660009081526009602052604090205460ff1615612db957612295600a6011614a61565b816001600160a01b031663699cd5e26040518163ffffffff1660e01b815260040160206040518083038186803b158015612df257600080fd5b505afa158015612e06573d6000803e3d6000fd5b505050506040513d6020811015612e1c57600080fd5b5050604080516060810182526001808252600060208381018281528486018381526001600160a01b03891684526009909252949091209251835490151560ff19918216178455935191830191909155516003909101805491151591909216179055612e86826155e1565b604080516001600160a01b038416815290517fcf583bb0c569eb967f806b11601c4cb93c10310485c67add5f8362c2f212321f9181900360200190a1600092915050565b60608060086000846001600160a01b03166001600160a01b03168152602001908152602001600020805480602002602001604051908101604052809291908181526020018280548015612f4657602002820191906000526020600020905b81546001600160a01b03168152600190910190602001808311612f28575b5093979650505050505050565b600a54600160b81b900460ff1681565b6060600d805480602002602001604051908101604052809291908181526020018280548015612fbb57602002820191906000526020600020905b81546001600160a01b03168152600190910190602001808311612f9d575b5050505050905090565b6000546001600160a01b03163314612fdc57600080fd5b601880546001600160a01b0319166001600160a01b0392909216919091179055565b600080546001600160a01b0316331461301d5761229560016014614a61565b6108fc8261ffff16101561303057600080fd5b601a805461ffff8481166201000081810263ffff0000198516179094556040805194909304919091168084526020840191909152815190927f3551483456769e8aff92a970633053ec0c131a1d6db04a08f495d0891a2e421b92908290030190a16000611dd3565b600081565b6002546001600160a01b031681565b600a54600090600160b01b900460ff1615613103576040805162461bcd60e51b81526020600482015260126024820152711d1c985b9cd9995c881a5cc81c185d5cd95960721b604482015290519081900360640190fd5b60006131108686856156bf565b9050801561311f579050611bcd565b6131298686614a36565b611bc78685614a36565b6060600082519050606081604051908082528060200260200182016040528015613167578160200160208202803883390190505b50905060005b828110156131c257600085828151811061318357fe5b60200260200101519050613197813361576b565b60118111156131a257fe5b8383815181106131ae57fe5b60209081029190910101525060010161316d565b509392505050565b601260209081526000928352604080842090915290825290205481565b600480546040805163fc57d4df60e01b81526001600160a01b038781169482019490945290516000938493849391169163fc57d4df91602480820192602092909190829003018186803b15801561323d57600080fd5b505afa158015613251573d6000803e3d6000fd5b505050506040513d602081101561326757600080fd5b5051600480546040805163fc57d4df60e01b81526001600160a01b038a8116948201949094529051939450600093929091169163fc57d4df91602480820192602092909190829003018186803b1580156132c057600080fd5b505afa1580156132d4573d6000803e3d6000fd5b505050506040513d60208110156132ea57600080fd5b505190508115806132f9575080155b1561330e57600d935060009250613407915050565b6000866001600160a01b031663182df0f56040518163ffffffff1660e01b815260040160206040518083038186803b15801561334957600080fd5b505afa15801561335d573d6000803e3d6000fd5b505050506040513d602081101561337357600080fd5b505190506000613381615dd1565b613389615dd1565b613391615dd1565b6133b9604051806020016040528060065481525060405180602001604052808a815250615861565b92506133e1604051806020016040528088815250604051806020016040528088815250615861565b91506133ed83836158a0565b90506133f9818b614ae7565b600099509750505050505050505b935093915050565b601160209081526000928352604080842090915290825290205481565b600a54600090600160b81b900460ff1615613480576040805162461bcd60e51b815260206004820152600f60248201526e1cd95a5e99481a5cc81c185d5cd959608a1b604482015290519081900360640190fd5b6001600160a01b03861660009081526009602052604090205460ff1615806134c157506001600160a01b03851660009081526009602052604090205460ff16155b156134cd5760096124ed565b846001600160a01b0316635fe3b5676040518163ffffffff1660e01b815260040160206040518083038186803b15801561350657600080fd5b505afa15801561351a573d6000803e3d6000fd5b505050506040513d602081101561353057600080fd5b505160408051635fe3b56760e01b815290516001600160a01b0392831692891691635fe3b567916004808301926020929190829003018186803b15801561357657600080fd5b505afa15801561358a573d6000803e3d6000fd5b505050506040513d60208110156135a057600080fd5b50516001600160a01b0316146135b75760026124ed565b6135c18684614a36565b6135cb8685614a36565b60009695505050505050565b60136020908152600092835260408084209091529082529020546001600160e01b03811690600160e01b900463ffffffff1682565b6001600160a01b0383166000908152600c602052604081205460ff161561366d576040805162461bcd60e51b815260206004820152601060248201526f189bdc9c9bddc81a5cc81c185d5cd95960821b604482015290519081900360640190fd5b6001600160a01b03841660009081526009602052604090205460ff1661369457600961225b565b6001600160a01b038085166000908152600960209081526040808320938716835260029093019052205460ff1661378457336001600160a01b0385161461371a576040805162461bcd60e51b815260206004820152601560248201527439b2b73232b91036bab9ba1031329036aa37b5b2b760591b604482015290519081900360640190fd5b6000613726338561576b565b9050600081601181111561373657fe5b1461374f5780601181111561374757fe5b915050611dd3565b6001600160a01b038086166000908152600960209081526040808320938816835260029093019052205460ff1661378257fe5b505b600480546040805163fc57d4df60e01b81526001600160a01b03888116948201949094529051929091169163fc57d4df91602480820192602092909190829003018186803b1580156137d557600080fd5b505afa1580156137e9573d6000803e3d6000fd5b505050506040513d60208110156137ff57600080fd5b505161380c57600d61225b565b6001600160a01b0384166000908152600f602052604090205480156138f9576000856001600160a01b03166347bd37186040518163ffffffff1660e01b815260040160206040518083038186803b15801561386657600080fd5b505afa15801561387a573d6000803e3d6000fd5b505050506040513d602081101561389057600080fd5b5051905060006138a082866158dc565b90508281106138f6576040805162461bcd60e51b815260206004820152601960248201527f6d61726b657420626f72726f7720636170207265616368656400000000000000604482015290519081900360640190fd5b50505b60008061390986886000886146fe565b9193509091506000905082601181111561391f57fe5b1461393a5781601181111561393057fe5b9350505050611dd3565b8015613947576004613930565b61394f615dd1565b6040518060200160405280896001600160a01b031663aa5af0fd6040518163ffffffff1660e01b815260040160206040518083038186803b15801561399357600080fd5b505afa1580156139a7573d6000803e3d6000fd5b505050506040513d60208110156139bd57600080fd5b5051905290506139ce88888361445a565b600098975050505050505050565b600860205281600052604060002081815481106139f557fe5b6000918252602090912001546001600160a01b03169150829050565b6003546001600160a01b031681565b600080546001600160a01b03163314613a4657613a3f60016006614a61565b90506118e1565b6001600160a01b0383166000908152600960205260409020805460ff16613a7b57613a7360096007614a61565b9150506118e1565b613a83615dd1565b506040805160208101909152838152613a9a615dd1565b506040805160208101909152670c7d713b49da00008152613abb8183615912565b15613ad657613acc60066008614a61565b93505050506118e1565b8415801590613b5f5750600480546040805163fc57d4df60e01b81526001600160a01b038a8116948201949094529051929091169163fc57d4df91602480820192602092909190829003018186803b158015613b3157600080fd5b505afa158015613b45573d6000803e3d6000fd5b505050506040513d6020811015613b5b57600080fd5b5051155b15613b7057613acc600d6009614a61565b60018301805490869055604080516001600160a01b03891681526020810183905280820188905290517f70483e6592cd5182d45ac970e05bc62cdcc90e9d8ef2c2dbe686cf383bcd7fc59181900360600190a16000979650505050505050565b600a54600160a81b900460ff1681565b60055481565b600080613bf48585856156bf565b90508015613c03579050611dd3565b613c0d8585614a36565b600095945050505050565b6ec097ce7bc90715b34b9f100000000081565b6000808290506000806000836001600160a01b031663c37f68e2336040518263ffffffff1660e01b815260040180826001600160a01b03166001600160a01b0316815260200191505060806040518083038186803b158015613c8c57600080fd5b505afa158015613ca0573d6000803e3d6000fd5b505050506040513d6080811015613cb657600080fd5b508051602082015160409092015190945090925090508215613d095760405162461bcd60e51b8152600401808060200182810382526025815260200180615f5b6025913960400191505060405180910390fd5b8015613d2657613d1b600c6002614a61565b945050505050611d28565b6000613d338733856156bf565b90508015613d5457613d48600e600383615919565b95505050505050611d28565b6001600160a01b0385166000908152600960209081526040808320338452600281019092529091205460ff16613d935760009650505050505050611d28565b3360009081526002820160209081526040808320805460ff191690556008825291829020805483518184028101840190945280845260609392830182828015613e0557602002820191906000526020600020905b81546001600160a01b03168152600190910190602001808311613de7575b5050835193945083925060009150505b82811015613e5a57896001600160a01b0316848281518110613e3357fe5b60200260200101516001600160a01b03161415613e5257809150613e5a565b600101613e15565b50818110613e6457fe5b336000908152600860205260409020805481906000198101908110613e8557fe5b9060005260206000200160009054906101000a90046001600160a01b0316818381548110613eaf57fe5b600091825260209091200180546001600160a01b0319166001600160a01b03929092169190911790558054613ee8826000198301615de4565b50604080516001600160a01b038c16815233602082015281517fe699a64c18b07ac5b7301aa273f36a2287239eb9501d81950672794afba29a0d929181900390910190a160009c9b505050505050505050505050565b6000546001600160a01b031681565b600080546001600160a01b0316331480613f7157506002546001600160a01b031633145b905090565b60ff841660008181526011602090815260408083206001600160a01b03881680855290835281842054948452601283528184209084529091529020548115613fc757613fc28686615088565b61416a565b831561416a576001600160a01b0385166000908152600960205260409020805460ff16614032576040805162461bcd60e51b815260206004820152601460248201527313585c9ad95d081a5cc81b9bdd081b1a5cdd195960621b604482015290519081900360640190fd5b60ff871660009081526013602090815260408083206001600160a01b038a1684529091529020546001600160e01b03161580156140a0575060ff871660009081526013602090815260408083206001600160a01b038a168452909152902054600160e01b900463ffffffff16155b156141685760405180604001604052806ec097ce7bc90715b34b9f10000000006001600160e01b031681526020016141026140d9612854565b6040518060400160405280601f8152602001600080516020615eb983398151915281525061597f565b63ffffffff90811690915260ff891660009081526013602090815260408083206001600160a01b038c1684528252909120835181549490920151909216600160e01b026001600160e01b039182166001600160e01b031990941693909317169190911790555b505b80156141fd57614178615dd1565b6040518060200160405280876001600160a01b031663aa5af0fd6040518163ffffffff1660e01b815260040160206040518083038186803b1580156141bc57600080fd5b505afa1580156141d0573d6000803e3d6000fd5b505050506040513d60208110156141e657600080fd5b5051905290506141f7878783614b06565b50614377565b8215614377576001600160a01b0385166000908152600960205260409020805460ff16614268576040805162461bcd60e51b815260206004820152601460248201527313585c9ad95d081a5cc81b9bdd081b1a5cdd195960621b604482015290519081900360640190fd5b60ff871660009081526014602090815260408083206001600160a01b038a1684529091529020546001600160e01b03161580156142d6575060ff871660009081526014602090815260408083206001600160a01b038a168452909152902054600160e01b900463ffffffff16155b156143755760405180604001604052806ec097ce7bc90715b34b9f10000000006001600160e01b0316815260200161430f6140d9612854565b63ffffffff90811690915260ff891660009081526014602090815260408083206001600160a01b038c1684528252909120835181549490920151909216600160e01b026001600160e01b039182166001600160e01b031990941693909317169190911790555b505b8382146143e55760ff861660008181526011602090815260408083206001600160a01b038a16808552908352928190208890558051938452908301879052805191927f2577edc53863f2e6d759b5da2c36549292f23909793d20feb1886bc21b17782f929081900390910190a25b8281146120455760ff861660008181526012602090815260408083206001600160a01b038a16808552908352928190208790558051938452908301869052805191927fee48fe28e41d25c72d48e0c4580dbeac6fb4ef83cd3401ced307912114e2e5eb929081900390910190a2505050505050565b60005b60018160ff1611611afc57614473818584614b06565b61447f81858585614e38565b60010161445d565b6000601954600114156144e1576040805162461bcd60e51b815260206004820152601f60248201527f5265656e7472616e637947756172643a207265656e7472616e742063616c6c00604482015290519081900360640190fd5b60016019558361461c57601854604080516370a0823160e01b815230600482015290516001600160a01b039092169160009183916370a0823191602480820192602092909190829003018186803b15801561453b57600080fd5b505afa15801561454f573d6000803e3d6000fd5b505050506040513d602081101561456557600080fd5b5051905083158015906145785750808411155b1561461557816001600160a01b031663a9059cbb86866040518363ffffffff1660e01b815260040180836001600160a01b03166001600160a01b0316815260200182815260200192505050602060405180830381600087803b1580156145dd57600080fd5b505af11580156145f1573d6000803e3d6000fd5b505050506040513d602081101561460757600080fd5b50600093506146f292505050565b50506146ef565b83600114156146ef574782158015906146355750808311155b156146ed57601a546040516000916001600160a01b038716916201000090910461ffff1690869084818181858888f193505050503d8060008114614695576040519150601f19603f3d011682016040523d82523d6000602084013e61469a565b606091505b50509050806146e2576040805162461bcd60e51b815260206004820152600f60248201526e151c985b9cd9995c8819985a5b1959608a1b604482015290519081900360640190fd5b6000925050506146f2565b505b50805b60006019559392505050565b600080600061470b615e08565b6001600160a01b0388166000908152600860209081526040808320805482518185028101850190935280835260609383018282801561477357602002820191906000526020600020905b81546001600160a01b03168152600190910190602001808311614755575b50939450600093505050505b81518110156149f757600082828151811061479657fe5b60200260200101519050806001600160a01b031663c37f68e28d6040518263ffffffff1660e01b815260040180826001600160a01b03166001600160a01b0316815260200191505060806040518083038186803b1580156147f657600080fd5b505afa15801561480a573d6000803e3d6000fd5b505050506040513d608081101561482057600080fd5b508051602082015160408084015160609485015160808b01529389019390935291870191909152935083156148655750600f9650600095508594506121cf9350505050565b60408051602080820183526001600160a01b0380851660008181526009845285902060010154845260c08a01939093528351808301855260808a0151815260e08a015260048054855163fc57d4df60e01b815291820194909452935192169263fc57d4df9260248083019392829003018186803b1580156148e557600080fd5b505afa1580156148f9573d6000803e3d6000fd5b505050506040513d602081101561490f57600080fd5b505160a086018190526149325750600d9650600095508594506121cf9350505050565b604080516020810190915260a0860151815261010086015260c085015160e086015161496c9161496191615861565b866101000151615861565b610120860181905260408601518651614986929190615a19565b8552610100850151606086015160208701516149a3929190615a19565b60208601526001600160a01b03818116908c1614156149ee576149d08561012001518b8760200151615a19565b602086018190526101008601516149e8918b90615a19565b60208601525b5060010161477f565b50602083015183511115614a1d57505060208101519051600094500391508290506121cf565b50508051602090910151600094508493500390506121cf565b60005b60018160ff16116123e657614a4e8184615088565b614a5981848461537a565b600101614a39565b60007f45b96fe442630264581b197e84bbada861235052c5a1aadfff9ea4e40a969aa0836011811115614a9057fe5b836014811115614a9c57fe5b604080519283526020830191909152600082820152519081900360600190a1826011811115611dd357fe5b6000806000614ada8460008060006146fe565b9250925092509193909250565b6000614af1615dd1565b614afb8484615a41565b9050611bcd81615a62565b60018360ff161115614b57576040805162461bcd60e51b81526020600482015260156024820152741c995dd85c99151e5c19481a5cc81a5b9d985b1a59605a1b604482015290519081900360640190fd5b60ff831660008181526014602090815260408083206001600160a01b0387168085529083528184209484526012835281842090845290915281205490614b9b612854565b8354909150600090614bbb908390600160e01b900463ffffffff16615a71565b9050600081118015614bcd5750600083115b15614ddd576000614c42876001600160a01b03166347bd37186040518163ffffffff1660e01b815260040160206040518083038186803b158015614c1057600080fd5b505afa158015614c24573d6000803e3d6000fd5b505050506040513d6020811015614c3a57600080fd5b505187615aab565b90506000614c508386615ac9565b9050614c5a615dd1565b60008311614c775760405180602001604052806000815250614c81565b614c818284615b0b565b9050614c8b615dd1565b604080516020810190915288546001600160e01b03168152614cad9083615b40565b90506040518060400160405280614cfd83600001516040518060400160405280601a81526020017f6e657720696e6465782065786365656473203232342062697473000000000000815250615b65565b6001600160e01b03168152602001614d38886040518060400160405280601f8152602001600080516020615eb983398151915281525061597f565b63ffffffff16815250601460008d60ff1660ff16815260200190815260200160002060008c6001600160a01b03166001600160a01b0316815260200190815260200160002060008201518160000160006101000a8154816001600160e01b0302191690836001600160e01b03160217905550602082015181600001601c6101000a81548163ffffffff021916908363ffffffff16021790555090505050505050612790565b801561279057614e10826040518060400160405280601f8152602001600080516020615eb983398151915281525061597f565b845463ffffffff91909116600160e01b026001600160e01b0390911617845550505050505050565b60018460ff161115614e89576040805162461bcd60e51b81526020600482015260156024820152741c995dd85c99151e5c19481a5cc81a5b9d985b1a59605a1b604482015290519081900360640190fd5b60ff841660009081526014602090815260408083206001600160a01b03871684529091529020614eb7615dd1565b50604080516020810190915281546001600160e01b03168152614ed8615dd1565b50604080516020808201835260ff89166000908152601682528381206001600160a01b03808b168352908352848220908916808352818452948220805485528651959092529091529190915580511561279057614f33615dd1565b614f3d8383615bba565b90506000614f9a886001600160a01b03166395dd9193896040518263ffffffff1660e01b815260040180826001600160a01b03166001600160a01b0316815260200191505060206040518083038186803b158015614c1057600080fd5b90506000614fa88284615bdf565b60ff8b1660009081526017602090815260408083206001600160a01b038d16845290915281205491925090614fdd90836158dc565b905080601760008d60ff1660ff16815260200190815260200160002060008b6001600160a01b03166001600160a01b0316815260200190815260200160002081905550886001600160a01b03168a6001600160a01b03168c60ff167fa1b6a046664a0ecf068059f26de56878f8d0e799907ca2e42d9148ccbdc717a7858a60000151604051808381526020018281526020019250505060405180910390a45050505050505050505050565b60018260ff1611156150d9576040805162461bcd60e51b81526020600482015260156024820152741c995dd85c99151e5c19481a5cc81a5b9d985b1a59605a1b604482015290519081900360640190fd5b60ff821660008181526013602090815260408083206001600160a01b038616808552908352818420948452601183528184209084529091528120549061511d612854565b835490915060009061513d908390600160e01b900463ffffffff16615a71565b905060008111801561514f5750600083115b15615320576000856001600160a01b03166318160ddd6040518163ffffffff1660e01b815260040160206040518083038186803b15801561518f57600080fd5b505afa1580156151a3573d6000803e3d6000fd5b505050506040513d60208110156151b957600080fd5b5051905060006151c98386615ac9565b90506151d3615dd1565b600083116151f057604051806020016040528060008152506151fa565b6151fa8284615b0b565b9050615204615dd1565b604080516020810190915288546001600160e01b031681526152269083615b40565b9050604051806040016040528061527683600001516040518060400160405280601a81526020017f6e657720696e6465782065786365656473203232342062697473000000000000815250615b65565b6001600160e01b031681526020016152b1886040518060400160405280601f8152602001600080516020615eb983398151915281525061597f565b63ffffffff90811690915260ff8c1660009081526013602090815260408083206001600160a01b038f1684528252909120835181549490920151909216600160e01b026001600160e01b039182166001600160e01b031990941693909317169190911790555061204592505050565b801561204557615353826040518060400160405280601f8152602001600080516020615eb983398151915281525061597f565b845463ffffffff91909116600160e01b026001600160e01b03909116178455505050505050565b60018360ff1611156153cb576040805162461bcd60e51b81526020600482015260156024820152741c995dd85c99151e5c19481a5cc81a5b9d985b1a59605a1b604482015290519081900360640190fd5b60ff831660009081526013602090815260408083206001600160a01b038616845290915290206153f9615dd1565b50604080516020810190915281546001600160e01b0316815261541a615dd1565b50604080516020808201835260ff88166000908152601582528381206001600160a01b03808a168352908352848220908816808352818452948220805485528651959092529091529190915580511580156154755750815115155b1561548d576ec097ce7bc90715b34b9f100000000081525b615495615dd1565b61549f8383615bba565b90506000866001600160a01b03166370a08231876040518263ffffffff1660e01b815260040180826001600160a01b03166001600160a01b0316815260200191505060206040518083038186803b1580156154f957600080fd5b505afa15801561550d573d6000803e3d6000fd5b505050506040513d602081101561552357600080fd5b5051905060006155338284615bdf565b60ff8a1660009081526017602090815260408083206001600160a01b038c1684529091528120549192509061556890836158dc565b60ff8b1660008181526017602090815260408083206001600160a01b03808f16808652918452938290208690558b51825189815293840152815195965094928e1693927faccd035d02c456be35306aecd5a5fe62320713dde09ccd68b0a5e8ed930399999281900390910190a450505050505050505050565b60005b600d5481101561566c57816001600160a01b0316600d828154811061560557fe5b6000918252602090912001546001600160a01b03161415615664576040805162461bcd60e51b81526020600482015260146024820152731b585c9ad95d08185b1c9958591e48185919195960621b604482015290519081900360640190fd5b6001016155e4565b50600d80546001810182556000919091527fd7b6990105719101dabeb77144f2a3385c8033acd3af97e9423a695e81ad1eb50180546001600160a01b0319166001600160a01b0392909216919091179055565b6001600160a01b03831660009081526009602052604081205460ff166156e657600961225b565b6001600160a01b038085166000908152600960209081526040808320938716835260029093019052205460ff1661571e57600061225b565b60008061572e85878660006146fe565b9193509091506000905082601181111561574457fe5b1461575e5781601181111561575557fe5b92505050611dd3565b80156135cb576004615755565b6001600160a01b0382166000908152600960205260408120805460ff166157965760099150506118e1565b6001600160a01b038316600090815260028201602052604090205460ff161515600114156157c85760009150506118e1565b6001600160a01b0380841660008181526002840160209081526040808320805460ff19166001908117909155600883528184208054918201815584529282902090920180549489166001600160a01b031990951685179055815193845283019190915280517f3ab23ab0d51cccc0c3085aec51f99228625aa1a922b3a8ca89a26b0f2027a1a59281900390910190a15060009392505050565b615869615dd1565b6040518060200160405280670de0b6b3a764000061588f86600001518660000151615ac9565b8161589657fe5b0490529392505050565b6158a8615dd1565b60405180602001604052806158d36158cc8660000151670de0b6b3a7640000615ac9565b8551615c0e565b90529392505050565b6000611dd38383604051806040016040528060118152602001706164646974696f6e206f766572666c6f7760781b815250615c41565b5190511090565b60007f45b96fe442630264581b197e84bbada861235052c5a1aadfff9ea4e40a969aa084601181111561594857fe5b84601481111561595457fe5b604080519283526020830191909152818101859052519081900360600190a1836011811115611bcd57fe5b600081600160201b8410615a115760405162461bcd60e51b81526004018080602001828103825283818151815260200191508051906020019080838360005b838110156159d65781810151838201526020016159be565b50505050905090810190601f168015615a035780820380516001836020036101000a031916815260200191505b509250505060405180910390fd5b509192915050565b6000615a23615dd1565b615a2d8585615a41565b9050612600615a3b82615a62565b846158dc565b615a49615dd1565b60405180602001604052806158d3856000015185615ac9565b51670de0b6b3a7640000900490565b6000611dd38383604051806040016040528060158152602001747375627472616374696f6e20756e646572666c6f7760581b815250615c9f565b6000611dd3615ac284670de0b6b3a7640000615ac9565b8351615c0e565b6000611dd383836040518060400160405280601781526020017f6d756c7469706c69636174696f6e206f766572666c6f77000000000000000000815250615cf9565b615b13615dd1565b60405180602001604052806158d3615b3a866ec097ce7bc90715b34b9f1000000000615ac9565b85615c0e565b615b48615dd1565b60405180602001604052806158d3856000015185600001516158dc565b600081600160e01b8410615a115760405162461bcd60e51b81526020600482018181528351602484015283519092839260449091019190850190808383600083156159d65781810151838201526020016159be565b615bc2615dd1565b60405180602001604052806158d385600001518560000151615a71565b60006ec097ce7bc90715b34b9f1000000000615bff848460000151615ac9565b81615c0657fe5b049392505050565b6000611dd383836040518060400160405280600e81526020016d646976696465206279207a65726f60901b815250615d6f565b60008383018285821015615c965760405162461bcd60e51b81526020600482018181528351602484015283519092839260449091019190850190808383600083156159d65781810151838201526020016159be565b50949350505050565b60008184841115615cf15760405162461bcd60e51b81526020600482018181528351602484015283519092839260449091019190850190808383600083156159d65781810151838201526020016159be565b505050900390565b6000831580615d06575082155b15615d1357506000611dd3565b83830283858281615d2057fe5b04148390615c965760405162461bcd60e51b81526020600482018181528351602484015283519092839260449091019190850190808383600083156159d65781810151838201526020016159be565b60008183615dbe5760405162461bcd60e51b81526020600482018181528351602484015283519092839260449091019190850190808383600083156159d65781810151838201526020016159be565b50828481615dc857fe5b04949350505050565b6040518060200160405280600081525090565b8154818355818111156123e6576000838152602090206123e6918101908301615e72565b604051806101400160405280600081526020016000815260200160008152602001600081526020016000815260200160008152602001615e46615dd1565b8152602001615e53615dd1565b8152602001615e60615dd1565b8152602001615e6d615dd1565b905290565b61285691905b80821115615e8c5760008155600101615e78565b509056fe63616e6e6f742070617573652061206d61726b65742074686174206973206e6f74206c6973746564626c6f636b2074696d657374616d7020657863656564732033322062697473006f6e6c7920706175736520677561726469616e20616e642061646d696e2063616e2070617573656f6e6c792061646d696e2063616e2073657420626f72726f772063617020677561726469616e6f6e6c792061646d696e206f7220626f72726f772063617020677561726469616e2063616e2073657420626f72726f772063617073657869744d61726b65743a206765744163636f756e74536e617073686f74206661696c65646f6e6c7920756e6974726f6c6c65722061646d696e2063616e206368616e676520627261696e73a265627a7a7231582086ffcd1a1a57025c6b14499305fe56c9edca84417baa3e186b870031e6f3a71464736f6c63430005110032",
  "linkReferences": {},
  "deployedLinkReferences": {}
}